:1000000012C02BC02AC029C028C027C0B7C125C034
:1000100024C023C022C0EDC115C21FC01EC01DC018
:100020001CC01BC01AC011241FBECFE5D4E0DEBF28
:10003000CDBF10E0A0E6B0E0E6E8F5E002C0059034
:100040000D92A037B107D9F711E0A0E7B0E001C0E9
:100050001D92AA38B107E1F70FC1B5C1B89AC0988F
:10006000109289010895BC01892B61F081E0809391
:100070008901C098109271001092700080E790E0A2
:1000800034D1089580E790E030D1882319F0C09AE8
:10009000109289010895BC0180918901882369F437
:1000A00082E790E022D1882341F088B391E089274C
:1000B00088BB10927300109272000895982F80915F
:1000C0008901882329F4992311F0C0980895C09AD2
:1000D00008951F93CF93C82F882341F488EE93E0AF
:1000E000DADFC093740081E090E0C3C080917400B7
:1000F000C817D1F1C0937400109277001092790064
:100100001092780088EC90E090937B0080937A00C6
:100110008C2F6AE02CD2892F9927880F991F809302
:100120007600CA3048F081E0809375008C2F1FD292
:100130009927880F991F0FC083E0809375008C2F3B
:100140006AE015D2892F9927880F991F809376002E
:10015000882319F484E180937600809189018823B3
:1001600009F084C081E0AADF80918901882309F029
:100170007DC0109175001130F1F460917A0070919A
:100180007B0088E790E0B1D0882361F088B38127B5
:1001900088BB809176008150809376001092790020
:1001A0001092780090917600992329F482E0809350
:1001B0007500892F83DF809175008230E1F468EE4D
:1001C00073E088E790E091D08823A9F08C2F6AE053
:1001D000CED1892F9927880F991F8093760023E02D
:1001E000209375001092790010927800882319F4FA
:1001F00084E180937600809175008330F9F46091FA
:100200007A0070917B0088E790E06FD0882369F0D6
:1002100088B391E0892788BB8091760081508093D4
:1002200076001092790010927800909176009923D0
:1002300029F484E080937500892F40DF8091750058
:100240008430A1F468EB7BE088E790E04ED088230F
:1002500069F0109275001092740081E0809377002D
:10026000109279001092780080E028DF809177006A
:100270009927CF911F910895CFE5D4E0DEBFCDBF80
:10028000EDDE87B3836087BBF894A9D07894C0E093
:100290001C2F86E490E0FCD068E97AE38CE790E0DC
:1002A00024D0882389F0112369F480916000982F6D
:1002B0008F5F80936000C92F843628F081E080939F
:1002C000600001C0C0E0109568EE73E08EE790E03A
:1002D0000CD0882321F082B392E0892782BB8C2F37
:1002E000F8DE81E690E024D1D7CFFC018FB7F894F7
:1002F00020918000309181004091820050918300D4
:100300008FBF80819181892B29F4C901860F971FA6
:100310009183808380819181A901481B590B57FFEC
:1003200002C080E005C0260F371F3183208381E0A3
:10033000992708950F931F93CF93DF93CDB7DEB71F
:1003400022970FB6F894DEBF0FBECDBF8C011A8284
:10035000198203C080916000BCDEB801CE01019615
:10036000C4DF8823B9F322960FB6F894DEBF0FBE20
:10037000CDBFDF91CF911F910F9108951F920F92E2
:100380000FB60F9211248F939F93AF93BF938091D9
:10039000800090918100A0918200B09183000A9624
:1003A000A11DB11D8093800090938100A0938200D5
:1003B000B0938300BF91AF919F918F910F900FBE2B
:1003C0000F901F9018951F920F920FB60F92112445
:1003D0008F939F9391E088B3892788BBFCCF1FBC84
:1003E0008DE08EBD8AE690E09BBD8ABD80E189BF2D
:1003F00008951F920F920FB60F9211242F938F938F
:100400009F93EF93FF939BB12CB19871E09186017C
:10041000EF5FEF7780918701E81711F492E006C053
:10042000E0938601FF27EC5FFE4F208390938801C5
:10043000FF91EF919F918F912F910F900FBE0F9091
:100440001F9018951F920F920FB60F9211248F9341
:100450009F93EF93FF93909184018091850198176A
:1004600069F0809185018F5F8F7780938501E82FF8
:10047000FF27EC57FF4F80818CB901C05598FF9141
:10048000EF919F918F910F900FBE0F901F90189535
:100490009C011092840110928501109286011092A5
:1004A0008701832F992780BD29B988E98AB986E811
:1004B00080BD08958FB7F894109284011092850141
:1004C00010928601109287019BB19CB19BB19CB1A7
:1004D0008FBF08959091860180918701981719F434
:1004E00080E091E00895809187018F5F8F778093FE
:1004F0008701E82FFF27EC5FFE4F20818091880164
:100500009927982F8827820F911D0895282F909161
:1005100084019F5F9F77809185019817E1F3E92F10
:10052000FF27EC57FF4F208390938401559A08953D
:10053000CF93DF93EC018881882329F08991E6DF4E
:1005400088818823D9F7DF91CF910895CF93DF93E6
:10055000EC01FC0121968491882331F0D7DFFE0164
:10056000219684918823D1F7DF91CF910895991B2B
:1005700079E004C0991F961708F0961B881F7A959A
:06058000C9F78095089503
:100586001D48656C6C6F20576F726C640A0D000015
:00000001FF
